:100000000C9434000C9451000C9451000C94510049
:100010000C9451000C9451000C9451000C9451001C
:100020000C9451000C9451000C9451000C9451000C
:100030000C9451000C9451000C9451000C945100FC
:100040000C9451000C9482030C9451000C945100B8
:100050000C9451000C9451000C9451000C945100DC
:100060000C9451000C94510011241FBECFEFD8E026
:10007000DEBFCDBF11E0A0E0B1E0E6EAF7E002C0EC
:1000800005900D92A432B107D9F721E0A4E2B1E0C6
:1000900001C01D92A632B207E1F70E9484000C94C1
:1000A000D1030C9400001F93CF93DF93EC011882CF
:1000B00080E094E09A83898381E08B8320E93FE1AB
:1000C0003D832C8390EC9E8798EA9F87888B898B51
:1000D0008FEF8A8B8B8B8C8B1D8ACE010E94E30263
:1000E000CE010E94B901182F811109C0CE010E94D2
:1000F0003E02282F30E0232B19F4812F01C08FEF0F
:10010000DF91CF911F910895CF93DF93CDB7DEB7E5
:1001100066970FB6F894DEBF0FBECDBFCE01019635
:100120000E94530042E250E060E071E0CE0101968F
:100130000E945602FFCF0F931F93CF93DF93182F88
:10014000092FD62F0CB404FC03C08CE20E94A90333
:1001500080E00E94B10380E00E94B103CBE008C0C0
:1001600088E00E94B103C150B9F080E00E94B10361
:1001700080EF0E94B7038111F3CF802F0E94B70355
:10018000812F0E94B7038D2F0E94B70388E00E9441
:10019000B10388E00E94B103DF91CF911F910F91CD
:1001A00008951F93CF93DF93D82F192F0CB404FC1D
:1001B00003C08CE20E94A90380E00E94B10380E0AA
:1001C0000E94B103CBE008C088E00E94B103C15097
:1001D000C1F080E00E94B1038FE00E94B70381115B
:1001E000F3CF812F0E94B7038D2F0E94B7038FEFAB
:1001F0000E94B703C82F88E00E94B10388E00E94E4
:10020000B1038C2FDF91CF911F910895AF92BF92D0
:10021000DF92EF92FF920F931F93CF93DF938C01A6
:10022000FC01C181D281CC0FCD2FCC1FDD0BD1952C
:10023000C6708AE190E00E94D100D82F8BE190E057
:100240000E94D1006D2F70E09B010C2E02C03595ED
:1002500027950A94E2F723703327E4E0F0E0DF010A
:1002600002C0AA0FBB1F2A95E2F7DA2E90E09C018C
:100270000C2E02C0359527950A94E2F72370332798
:1002800002C0EE0FFF1F2A95E2F7EE2ECC2339F1C4
:10029000F12CD0E044E050E09B010C2E02C03595DB
:1002A00027950A94E2F7237033275A0102C0AA0C5B
:1002B000BB1C2A95E2F7FA0C9C010C2E02C0359566
:1002C00027950A94E2F7237033275A0102C0AA0C3B
:1002D000BB1C2A95E2F7DA0DC250F1F602C0F12CF0
:1002E000D0E0EF0DAD0FA93018F080E2D82EDD1A66
:1002F000E93018F080E2E82EEF18DD2081F08D2D36
:1003000090E0982F88270197F801918780878D2F9B
:1003100090E0982F8827905A9783868307C0F8012A
:100320001186108680E090E897838683EE2081F026
:100330008E2D90E0982F88270197F8019587848764
:100340008F2D90E0982F8827905C9387828707C035
:10035000F8011586148680E090E693878287DF9106
:10036000CF911F910F91FF90EF90DF90BF90AF90D2
:1003700008952F923F924F925F926F927F928F9249
:100380009F92AF92BF92CF92DF92EF92FF920F9324
:100390001F93CF93DF93EC01E980FA800F2EFAE0F0
:1003A0002F2EF02D570184E0A80EB11C670185E0C7
:1003B000C80ED11C470182E1880E911C370183E1F0
:1003C000680E711C87010F5F1F4F270183E0480EE5
:1003D000511C6B81C7010E949B006D81C5010E9469
:1003E0009B006C81C6010E949B0062E0C4010E94D8
:1003F0009B0068E1C3010E949B0061E0C8010E946C
:100400009B0033243A943A943110FDCFC2010E94EC
:10041000D100833141F060E1C8010E949B002A9421
:100420002110D7CF04C0CE010E94060102C03324A0
:100430003A94832DDF91CF911F910F91FF90EF9010
:10044000DF90CF90BF90AF909F908F907F906F90F4
:100450005F904F903F902F900895CF93DF93EC01E2
:100460002396CE010E94D100882321F08731C9F75D
:1004700080E001C08FEFDF91CF910895CF93DF939C
:10048000FC01C181D28162E0CE0101960E949B00F5
:10049000CE0103960E94D100843121F4CE010E9446
:1004A0002D0201C08EEFDF91CF9108952F923F92E0
:1004B0004F925F926F927F928F929F92AF92BF9274
:1004C000CF92DF92EF92FF920F931F93CF93DF9320
:1004D0008C01262E372E5A01FC01C180D2803601B4
:1004E000F4E26F0E711CC3010E94D100F82E2601A8
:1004F00085E2480E511CC2010E94D100882EF801ED
:10050000C485D585C60103960E94D100882309F4CD
:1005100045C08C3119F48EEF9FEF42C0F801808501
:1005200091850097E9F1912C9F28219611F1A11452
:10053000B10419F1E22CF32C212C312CF70141915B
:100540007F01C401820D931DBE010E94BD03F8010D
:1005500022853385642F820F931F0E949B00FFEF3B
:100560002F1A3F0A2C163D0638F4A214B30431F7B3
:1005700004C0A12CB12C01C051018A0C9B1C692D17
:10058000C3010E949B00682DC2010E949B0060E293
:10059000C60101960E949B00C50102C08FEF9FEF2C
:1005A000DF91CF911F910F91FF90EF90DF90CF904F
:1005B000BF90AF909F908F907F906F905F904F9083
:1005C0003F902F900895CF93DF93EC0160E080E09F
:1005D00090E00E949B0060E086E190E00E949B001A
:1005E00067E287E190E00E949B0060E188E190E093
:1005F0000E949B006EE189E190E00E949B006E8565
:1006000081E090E00E949B006F8582E090E00E9474
:100610009B00688983E090E00E949B00698984E0E8
:1006200090E00E949B0062E589E090E00E949B00C0
:1006300065E48AE090E00E949B0063E48BE090E038
:100640000E949B0062E58CE090E00E949B0064E4C5
:100650008DE090E00E949B006881605D8EE090E0FC
:100660000E949B006A8985E090E00E949B006B8954
:1006700086E090E00E949B006C8987E090E00E94F9
:100680009B006D8988E090E00E949B006E858A89BE
:1006900068238FE090E00E949B006F858B89682320
:1006A00080E190E00E949B0068898C89682381E149
:1006B00090E00E949B002D8961E0211160E098810B
:1006C000962389898223692F682B82E190E00E941A
:1006D0009B0089819A8161E045960E949B008981F7
:1006E0009A8160E846960E949B0063E08AE190E070
:1006F0000E949B0063E08BE190E00E949B00DF91F1
:10070000CF9108951F920F920FB60F9211242F933D
:100710003F934F935F936F937F938F939F93AF9389
:10072000BF93EF93FF93E0912401F0912501099588
:10073000FF91EF91BF91AF919F918F917F916F91B9
:100740005F914F913F912F910F900FBE0F901F908F
:10075000189584B98C3211F080E401C081E58CBD1C
:100760000895882311F01A9A08951A9808958EBD55
:100770000DB407FEFDCF8EB50895AA1BBB1B51E13A
:1007800007C0AA1FBB1FA617B70710F0A61BB70B01
:10079000881F991F5A95A9F780959095BC01CD01A6
:0607A0000895F894FFCF5C
:1007A6001B5B481B5B4A1B5B313B353B39373B3197
:1007B60030356D2057656C636F6D6521201B5B6D51
:0407C6000D0A000018
:00000001FF
